{"abi":[{"type":"constructor","inputs":[{"name":"initialOwner","type":"address","internalType":"address"}],"stateMutability":"nonpayable"},{"type":"function","name":"CLOCK_MODE","inputs":[],"outputs":[{"name":"","type":"string","internalType":"string"}],"stateMutability":"pure"},{"type":"function","name":"DOMAIN_SEPARATOR","inputs":[],"outputs":[{"name":"","type":"bytes32","internalType":"bytes32"}],"stateMutability":"view"},{"type":"function","name":"allowance","inputs":[{"name":"owner","type":"address","internalType":"address"},{"name":"spender","type":"address","internalType":"address"}],"outputs":[{"name":"","type":"uint256","internalType":"uint256"}],"stateMutability":"view"},{"type":"function","name":"approve","inputs":[{"name":"spender","type":"address","internalType":"address"},{"name":"value","type":"uint256","internalType":"uint256"}],"outputs":[{"name":"","type":"bool","internalType":"bool"}],"stateMutability":"nonpayable"},{"type":"function","name":"balanceOf","inputs":[{"name":"account","type":"address","internalType":"address"}],"outputs":[{"name":"","type":"uint256","internalType":"uint256"}],"stateMutability":"view"},{"type":"function","name":"burn","inputs":[{"name":"value","type":"uint256","internalType":"uint256"}],"outputs":[],"stateMutability":"nonpayable"},{"type":"function","name":"burnFrom","inputs":[{"name":"account","type":"address","internalType":"address"},{"name":"value","type":"uint256","internalType":"uint256"}],"outputs":[],"stateMutability":"nonpayable"},{"type":"function","name":"checkpoints","inputs":[{"name":"account","type":"address","internalType":"address"},{"name":"pos","type":"uint32","internalType":"uint32"}],"outputs":[{"name":"","type":"tuple","internalType":"struct Checkpoints.Checkpoint208","components":[{"name":"_key","type":"uint48","internalType":"uint48"},{"name":"_value","type":"uint208","internalType":"uint208"}]}],"stateMutability":"view"},{"type":"function","name":"clock","inputs":[],"outputs":[{"name":"","type":"uint48","internalType":"uint48"}],"stateMutability":"view"},{"type":"function","name":"decimals","inputs":[],"outputs":[{"name":"","type":"uint8","internalType":"uint8"}],"stateMutability":"view"},{"type":"function","name":"delegate","inputs":[{"name":"delegatee","type":"address","internalType":"address"}],"outputs":[],"stateMutability":"nonpayable"},{"type":"function","name":"delegateBySig","inputs":[{"name":"delegatee","type":"address","internalType":"address"},{"name":"nonce","type":"uint256","internalType":"uint256"},{"name":"expiry","type":"uint256","internalType":"uint256"},{"name":"v","type":"uint8","internalType":"uint8"},{"name":"r","type":"bytes32","internalType":"bytes32"},{"name":"s","type":"bytes32","internalType":"bytes32"}],"outputs":[],"stateMutability":"nonpayable"},{"type":"function","name":"delegates","inputs":[{"name":"account","type":"address","internalType":"address"}],"outputs":[{"name":"","type":"address","internalType":"address"}],"stateMutability":"view"},{"type":"function","name":"eip712Domain","inputs":[],"outputs":[{"name":"fields","type":"bytes1","internalType":"bytes1"},{"name":"name","type":"string","internalType":"string"},{"name":"version","type":"string","internalType":"string"},{"name":"chainId","type":"uint256","internalType":"uint256"},{"name":"verifyingContract","type":"address","internalType":"address"},{"name":"salt","type":"bytes32","internalType":"bytes32"},{"name":"extensions","type":"uint256[]","internalType":"uint256[]"}],"stateMutability":"view"},{"type":"function","name":"flashFee","inputs":[{"name":"token","type":"address","internalType":"address"},{"name":"value","type":"uint256","internalType":"uint256"}],"outputs":[{"name":"","type":"uint256","internalType":"uint256"}],"stateMutability":"view"},{"type":"function","name":"flashLoan","inputs":[{"name":"receiver","type":"address","internalType":"contract IERC3156FlashBorrower"},{"name":"token","type":"address","internalType":"address"},{"name":"value","type":"uint256","internalType":"uint256"},{"name":"data","type":"bytes","internalType":"bytes"}],"outputs":[{"name":"","type":"bool","internalType":"bool"}],"stateMutability":"nonpayable"},{"type":"function","name":"getPastTotalSupply","inputs":[{"name":"timepoint","type":"uint256","internalType":"uint256"}],"outputs":[{"name":"","type":"uint256","internalType":"uint256"}],"stateMutability":"view"},{"type":"function","name":"getPastVotes","inputs":[{"name":"account","type":"address","internalType":"address"},{"name":"timepoint","type":"uint256","internalType":"uint256"}],"outputs":[{"name":"","type":"uint256","internalType":"uint256"}],"stateMutability":"view"},{"type":"function","name":"getVotes","inputs":[{"name":"account","type":"address","internalType":"address"}],"outputs":[{"name":"","type":"uint256","internalType":"uint256"}],"stateMutability":"view"},{"type":"function","name":"maxFlashLoan","inputs":[{"name":"token","type":"address","internalType":"address"}],"outputs":[{"name":"","type":"uint256","internalType":"uint256"}],"stateMutability":"view"},{"type":"function","name":"mint","inputs":[{"name":"to","type":"address","internalType":"address"},{"name":"amount","type":"uint256","internalType":"uint256"}],"outputs":[],"stateMutability":"nonpayable"},{"type":"function","name":"name","inputs":[],"outputs":[{"name":"","type":"string","internalType":"string"}],"stateMutability":"view"},{"type":"function","name":"nonces","inputs":[{"name":"owner","type":"address","internalType":"address"}],"outputs":[{"name":"","type":"uint256","internalType":"uint256"}],"stateMutability":"view"},{"type":"function","name":"numCheckpoints","inputs":[{"name":"account","type":"address","internalType":"address"}],"outputs":[{"name":"","type":"uint32","internalType":"uint32"}],"stateMutability":"view"},{"type":"function","name":"owner","inputs":[],"outputs":[{"name":"","type":"address","internalType":"address"}],"stateMutability":"view"},{"type":"function","name":"permit","inputs":[{"name":"owner","type":"address","internalType":"address"},{"name":"spender","type":"address","internalType":"address"},{"name":"value","type":"uint256","internalType":"uint256"},{"name":"deadline","type":"uint256","internalType":"uint256"},{"name":"v","type":"uint8","internalType":"uint8"},{"name":"r","type":"bytes32","internalType":"bytes32"},{"name":"s","type":"bytes32","internalType":"bytes32"}],"outputs":[],"stateMutability":"nonpayable"},{"type":"function","name":"renounceOwnership","inputs":[],"outputs":[],"stateMutability":"nonpayable"},{"type":"function","name":"symbol","inputs":[],"outputs":[{"name":"","type":"string","internalType":"string"}],"stateMutability":"view"},{"type":"function","name":"totalSupply","inputs":[],"outputs":[{"name":"","type":"uint256","internalType":"uint256"}],"stateMutability":"view"},{"type":"function","name":"transfer","inputs":[{"name":"to","type":"address","internalType":"address"},{"name":"value","type":"uint256","internalType":"uint256"}],"outputs":[{"name":"","type":"bool","internalType":"bool"}],"stateMutability":"nonpayable"},{"type":"function","name":"transferFrom","inputs":[{"name":"from","type":"address","internalType":"address"},{"name":"to","type":"address","internalType":"address"},{"name":"value","type":"uint256","internalType":"uint256"}],"outputs":[{"name":"","type":"bool","internalType":"bool"}],"stateMutability":"nonpayable"},{"type":"function","name":"transferOwnership","inputs":[{"name":"newOwner","type":"address","internalType":"address"}],"outputs":[],"stateMutability":"nonpayable"},{"type":"event","name":"Approval","inputs":[{"name":"owner","type":"address","indexed":true,"internalType":"address"},{"name":"spender","type":"address","indexed":true,"internalType":"address"},{"name":"value","type":"uint256","indexed":false,"internalType":"uint256"}],"anonymous":false},{"type":"event","name":"DelegateChanged","inputs":[{"name":"delegator","type":"address","indexed":true,"internalType":"address"},{"name":"fromDelegate","type":"address","indexed":true,"internalType":"address"},{"name":"toDelegate","type":"address","indexed":true,"internalType":"address"}],"anonymous":false},{"type":"event","name":"DelegateVotesChanged","inputs":[{"name":"delegate","type":"address","indexed":true,"internalType":"address"},{"name":"previousVotes","type":"uint256","indexed":false,"internalType":"uint256"},{"name":"newVotes","type":"uint256","indexed":false,"internalType":"uint256"}],"anonymous":false},{"type":"event","name":"EIP712DomainChanged","inputs":[],"anonymous":false},{"type":"event","name":"OwnershipTransferred","inputs":[{"name":"previousOwner","type":"address","indexed":true,"internalType":"address"},{"name":"newOwner","type":"address","indexed":true,"internalType":"address"}],"anonymous":false},{"type":"event","name":"Transfer","inputs":[{"name":"from","type":"address","indexed":true,"internalType":"address"},{"name":"to","type":"address","indexed":true,"internalType":"address"},{"name":"value","type":"uint256","indexed":false,"internalType":"uint256"}],"anonymous":false},{"type":"error","name":"CheckpointUnorderedInsertion","inputs":[]},{"type":"error","name":"ECDSAInvalidSignature","inputs":[]},{"type":"error","name":"ECDSAInvalidSignatureLength","inputs":[{"name":"length","type":"uint256","internalType":"uint256"}]},{"type":"error","name":"ECDSAInvalidSignatureS","inputs":[{"name":"s","type":"bytes32","internalType":"bytes32"}]},{"type":"error","name":"ERC20ExceededSafeSupply","inputs":[{"name":"increasedSupply","type":"uint256","internalType":"uint256"},{"name":"cap","type":"uint256","internalType":"uint256"}]},{"type":"error","name":"ERC20InsufficientAllowance","inputs":[{"name":"spender","type":"address","internalType":"address"},{"name":"allowance","type":"uint256","internalType":"uint256"},{"name":"needed","type":"uint256","internalType":"uint256"}]},{"type":"error","name":"ERC20InsufficientBalance","inputs":[{"name":"sender","type":"address","internalType":"address"},{"name":"balance","type":"uint256","internalType":"uint256"},{"name":"needed","type":"uint256","internalType":"uint256"}]},{"type":"error","name":"ERC20InvalidApprover","inputs":[{"name":"approver","type":"address","internalType":"address"}]},{"type":"error","name":"ERC20InvalidReceiver","inputs":[{"name":"receiver","type":"address","internalType":"address"}]},{"type":"error","name":"ERC20InvalidSender","inputs":[{"name":"sender","type":"address","internalType":"address"}]},{"type":"error","name":"ERC20InvalidSpender","inputs":[{"name":"spender","type":"address","internalType":"address"}]},{"type":"error","name":"ERC2612ExpiredSignature","inputs":[{"name":"deadline","type":"uint256","internalType":"uint256"}]},{"type":"error","name":"ERC2612InvalidSigner","inputs":[{"name":"signer","type":"address","internalType":"address"},{"name":"owner","type":"address","internalType":"address"}]},{"type":"error","name":"ERC3156ExceededMaxLoan","inputs":[{"name":"maxLoan","type":"uint256","internalType":"uint256"}]},{"type":"error","name":"ERC3156InvalidReceiver","inputs":[{"name":"receiver","type":"address","internalType":"address"}]},{"type":"error","name":"ERC3156UnsupportedToken","inputs":[{"name":"token","type":"address","internalType":"address"}]},{"type":"error","name":"ERC5805FutureLookup","inputs":[{"name":"timepoint","type":"uint256","internalType":"uint256"},{"name":"clock","type":"uint48","internalType":"uint48"}]},{"type":"error","name":"ERC6372InconsistentClock","inputs":[]},{"type":"error","name":"InvalidAccountNonce","inputs":[{"name":"account","type":"address","internalType":"address"},{"name":"currentNonce","type":"uint256","internalType":"uint256"}]},{"type":"error","name":"InvalidShortString","inputs":[]},{"type":"error","name":"OwnableInvalidOwner","inputs":[{"name":"owner","type":"address","internalType":"address"}]},{"type":"error","name":"OwnableUnauthorizedAccount","inputs":[{"name":"account","type":"address","internalType":"address"}]},{"type":"error","name":"SafeCastOverflowedUintDowncast","inputs":[{"name":"bits","type":"uint8","internalType":"uint8"},{"name":"value","type":"uint256","internalType":"uint256"}]},{"type":"error","name":"StringTooLong","inputs":[{"name":"str","type":"string","internalType":"string"}]},{"type":"error","name":"VotesExpiredSignature","inputs":[{"name":"expiry","type":"uint256","internalType":"uint256"}]}],"bytecode":{"object":"0x61016060405234801561001157600080fd5b50604051612fe6380380612fe6833981016040819052610030916108c5565b6040518060400160405280600f81526020016e213630b1b5a9b6b4ba3422ba3432b960891b81525080604051806040016040528060018152602001603160f81b815250836040518060400160405280600f81526020016e213630b1b5a9b6b4ba3422ba3432b960891b8152506040518060400160405280600381526020016242534560e81b81525081600390816100c7919061098c565b5060046100d4828261098c565b5050506001600160a01b03811661010657604051631e4fbdf760e01b8152600060048201526024015b60405180910390fd5b61010f816101ea565b5061011b82600661023c565b6101205261012a81600761023c565b61014052815160208084019190912060e052815190820120610100524660a0526101b760e05161010051604080517f8b73c3c69bb8fe3d512ecc4cf759cc79239f7b179b0ffacaa9a75d522b39400f60208201529081019290925260608201524660808201523060a082015260009060c00160405160208183030381529060405280519060200120905090565b60805250503060c052506101e4336101d16012600a610b3f565b6101df906301312d00610b4e565b61026f565b50610c3b565b600580546001600160a01b038381166001600160a01b0319831681179093556040519116919082907f8be0079c531659141344cd1fd0a4f28419497f9722a3daafe3b4186f6b6457e090600090a35050565b600060208351101561025857610251836102a9565b9050610269565b81610263848261098c565b5060ff90505b92915050565b6001600160a01b0382166102995760405163ec442f0560e01b8152600060048201526024016100fd565b6102a5600083836102e7565b5050565b600080829050601f815111156102d4578260405163305a27a960e01b81526004016100fd9190610b65565b80516102df82610bb3565b179392505050565b6102f28383836102f7565b505050565b61030283838361035e565b6001600160a01b03831661035357600061031b60025490565b90506001600160d01b038082111561035057604051630e58ae9360e11b815260048101839052602481018290526044016100fd565b50505b6102f2838383610488565b6001600160a01b03831661038957806002600082825461037e9190610bd7565b909155506103fb9050565b6001600160a01b038316600090815260208190526040902054818110156103dc5760405163391434e360e21b81526001600160a01b038516600482015260248101829052604481018390526064016100fd565b6001600160a01b03841660009081526020819052604090209082900390555b6001600160a01b03821661041757600280548290039055610436565b6001600160a01b03821660009081526020819052604090208054820190555b816001600160a01b0316836001600160a01b03167fddf252ad1be2c89b69c2b068fc378daa952ba7f163c4a11628f55a4df523b3ef8360405161047b91815260200190565b60405180910390a3505050565b6001600160a01b0383166104b6576104b3600b610c0561051160201b176104ae84610524565b61055c565b50505b6001600160a01b0382166104df576104dc600b610c1161058b60201b176104ae84610524565b50505b6001600160a01b038381166000908152600960205260408082205485841683529120546102f292918216911683610597565b600061051d8284610bea565b9392505050565b60006001600160d01b03821115610558576040516306dfcc6560e41b815260d06004820152602481018390526044016100fd565b5090565b60008061057e4261057661056f886106ec565b868860201c565b879190610736565b915091505b935093915050565b600061051d8284610c09565b816001600160a01b0316836001600160a01b0316141580156105b95750600081115b156102f2576001600160a01b03831615610653576001600160a01b0383166000908152600a6020908152604082208291610600919061058b901b610c11176104ae86610524565b6001600160d01b031691506001600160d01b03169150846001600160a01b0316600080516020612fc68339815191528383604051610648929190918252602082015260400190565b60405180910390a250505b6001600160a01b038216156102f2576001600160a01b0382166000908152600a60209081526040822082916106959190610511901b610c05176104ae86610524565b6001600160d01b031691506001600160d01b03169150836001600160a01b0316600080516020612fc683398151915283836040516106dd929190918252602082015260400190565b60405180910390a25050505050565b8054600090801561072d5761071483610706600184610c28565b600091825260209091200190565b54660100000000000090046001600160d01b031661051d565b60009392505050565b60008061057e85858582546000908190801561086757600061075d87610706600185610c28565b60408051808201909152905465ffffffffffff80821680845266010000000000009092046001600160d01b0316602084015291925090871610156107b457604051632520601d60e01b815260040160405180910390fd5b805165ffffffffffff80881691160361080357846107d788610706600186610c28565b80546001600160d01b039290921666010000000000000265ffffffffffff909216919091179055610857565b6040805180820190915265ffffffffffff80881682526001600160d01b0380881660208085019182528b54600181018d5560008d815291909120945191519092166601000000000000029216919091179101555b6020015192508391506105839050565b50506040805180820190915265ffffffffffff80851682526001600160d01b0380851660208085019182528854600181018a5560008a8152918220955192519093166601000000000000029190931617920191909155905081610583565b6000602082840312156108d757600080fd5b81516001600160a01b038116811461051d57600080fd5b634e487b7160e01b600052604160045260246000fd5b600181811c9082168061091857607f821691505b60208210810361093857634e487b7160e01b600052602260045260246000fd5b50919050565b601f8211156102f257806000526020600020601f840160051c810160208510156109655750805b601f840160051c820191505b818110156109855760008155600101610971565b5050505050565b81516001600160401b038111156109a5576109a56108ee565b6109b9816109b38454610904565b8461093e565b6020601f8211600181146109ed57600083156109d55750848201515b600019600385901b1c1916600184901b178455610985565b600084815260208120601f198516915b82811015610a1d57878501518255602094850194600190920191016109fd565b5084821015610a3b5786840151600019600387901b60f8161c191681555b50505050600190811b01905550565b634e487b7160e01b600052601160045260246000fd5b6001815b600184111561058357808504811115610a7f57610a7f610a4a565b6001841615610a8d57908102905b60019390931c928002610a64565b600082610aaa57506001610269565b81610ab757506000610269565b8160018114610acd5760028114610ad757610af3565b6001915050610269565b60ff841115610ae857610ae8610a4a565b50506001821b610269565b5060208310610133831016604e8410600b8410161715610b16575081810a610269565b610b236000198484610a60565b8060001904821115610b3757610b37610a4a565b029392505050565b600061051d60ff841683610a9b565b808202811582820484141761026957610269610a4a565b602081526000825180602084015260005b81811015610b935760208186018101516040868401015201610b76565b506000604082850101526040601f19601f83011684010191505092915050565b805160208083015191908110156109385760001960209190910360031b1b16919050565b8082018082111561026957610269610a4a565b6001600160d01b03818116838216019081111561026957610269610a4a565b6001600160d01b03828116828216039081111561026957610269610a4a565b8181038181111561026957610269610a4a565b60805160a05160c05160e051610100516101205161014051612331610c9560003960006110f5015260006110c801526000610de601526000610dbe01526000610d1901526000610d4301526000610d6d01526123316000f3fe608060405234801561001057600080fd5b50600436106101f05760003560e01c8063715018a61161010f5780639ab24eb0116100a2578063d9d98ce411610071578063d9d98ce41461047c578063dd62ed3e1461048f578063f1127ed8146104c8578063f2fde38b1461050757600080fd5b80639ab24eb014610430578063a9059cbb14610443578063c3cda52014610456578063d505accf1461046957600080fd5b80638da5cb5b116100de5780638da5cb5b146103ee5780638e539e8c146103ff57806391ddadf41461041257806395d89b411461042857600080fd5b8063715018a6146103a557806379cc6790146103ad5780637ecebe00146103c057806384b0196e146103d357600080fd5b806342966c68116101875780635cffe9de116101565780635cffe9de1461032e578063613255ab146103415780636fcfff451461035457806370a082311461037c57600080fd5b806342966c681461029a5780634bf5d7e9146102ad578063587cde1e146102d75780635c19a95c1461031b57600080fd5b8063313ce567116101c3578063313ce5671461025b5780633644e5151461026a5780633a46b1a81461027257806340c10f191461028557600080fd5b806306fdde03146101f5578063095ea7b31461021357806318160ddd1461023657806323b872dd14610248575b600080fd5b6101fd61051a565b60405161020a9190611e1e565b60405180910390f35b610226610221366004611e46565b6105ac565b604051901515815260200161020a565b6002545b60405190815260200161020a565b610226610256366004611e72565b6105c6565b6040516012815260200161020a565b61023a6105ea565b61023a610280366004611e46565b6105f9565b610298610293366004611e46565b610675565b005b6102986102a8366004611eb3565b61068b565b60408051808201909152600e81526d06d6f64653d74696d657374616d760941b60208201526101fd565b6103036102e5366004611ecc565b6001600160a01b039081166000908152600960205260409020541690565b6040516001600160a01b03909116815260200161020a565b610298610329366004611ecc565b610698565b61022661033c366004611ee9565b6106a3565b61023a61034f366004611ecc565b61081b565b610367610362366004611ecc565b610843565b60405163ffffffff909116815260200161020a565b61023a61038a366004611ecc565b6001600160a01b031660009081526020819052604090205490565b61029861084e565b6102986103bb366004611e46565b610862565b61023a6103ce366004611ecc565b610877565b6103db610882565b60405161020a9796959493929190611f8a565b6005546001600160a01b0316610303565b61023a61040d366004611eb3565b6108c8565b60405165ffffffffffff4216815260200161020a565b6101fd610928565b61023a61043e366004611ecc565b610937565b610226610451366004611e46565b610967565b610298610464366004612038565b610975565b610298610477366004612092565b610a32565b61023a61048a366004611e46565b610b6c565b61023a61049d366004612101565b6001600160a01b03918216600090815260016020908152604080832093909416825291909152205490565b6104db6104d636600461213a565b610bac565b60408051825165ffffffffffff1681526020928301516001600160d01b0316928101929092520161020a565b610298610515366004611ecc565b610bca565b60606003805461052990612171565b80601f016020809104026020016040519081016040528092919081815260200182805461055590612171565b80156105a25780601f10610577576101008083540402835291602001916105a2565b820191906000526020600020905b81548152906001019060200180831161058557829003601f168201915b5050505050905090565b6000336105ba818585610c1d565b60019150505b92915050565b6000336105d4858285610c2f565b6105df858585610cad565b506001949350505050565b60006105f4610d0c565b905090565b60004265ffffffffffff8116831061063a57604051637669fc0f60e11b81526004810184905265ffffffffffff821660248201526044015b60405180910390fd5b61066461064684610e37565b6001600160a01b0386166000908152600a6020526040902090610e6e565b6001600160d01b0316949350505050565b61067d610f24565b6106878282610f51565b5050565b6106953382610f87565b50565b336106878183610fbd565b6000806106af8661081b565b9050808511156106d55760405163fd9a760960e01b815260048101829052602401610631565b60006106e18787610b6c565b90506106ed8887610f51565b6040516323e30c8b60e01b81527f439148f0bbc682ca079e46d6e2c2f0c1e3b820f1a291b069d8882abf8cf18dd9906001600160a01b038a16906323e30c8b906107459033908c908c9088908d908d906004016121ab565b6020604051808303816000875af1158015610764573d6000803e3d6000fd5b505050506040513d601f19601f820116820180604052508101906107889190612204565b146107b05760405162678c5b60e81b81526001600160a01b0389166004820152602401610631565b60006107c689306107c1858b612233565b610c2f565b8115806107da57506001600160a01b038116155b156107f7576107f2896107ed848a612233565b610f87565b61080c565b6108018988610f87565b61080c898284610cad565b50600198975050505050505050565b60006001600160a01b03821630146108345760006105c0565b6002546105c090600019612246565b60006105c08261102f565b610856610f24565b6108606000611051565b565b61086d823383610c2f565b6106878282610f87565b60006105c0826110a3565b6000606080600080600060606108966110c1565b61089e6110ee565b60408051600080825260208201909252600f60f81b9b939a50919850469750309650945092509050565b60004265ffffffffffff8116831061090457604051637669fc0f60e11b81526004810184905265ffffffffffff82166024820152604401610631565b61091861091084610e37565b600b90610e6e565b6001600160d01b03169392505050565b60606004805461052990612171565b6001600160a01b0381166000908152600a602052604081206109589061111b565b6001600160d01b031692915050565b6000336105ba818585610cad565b8342111561099957604051632341d78760e11b815260048101859052602401610631565b604080517fe48329057bfd03d55e49b547132e39cffd9c1820ad7b9d4c5307691425d15adf60208201526001600160a01b038816918101919091526060810186905260808101859052600090610a1390610a0b9060a0016040516020818303038152906040528051906020012061114b565b858585611178565b9050610a1f81876111a6565b610a298188610fbd565b50505050505050565b83421115610a565760405163313c898160e11b815260048101859052602401610631565b60007f6e71edae12b1b97f4d1f60370fef10105fa2faae0126114a169c64845d6126c9888888610aa38c6001600160a01b0316600090815260086020526040902080546001810190915590565b6040805160208101969096526001600160a01b0394851690860152929091166060840152608083015260a082015260c0810186905260e0016040516020818303038152906040528051906020012090506000610afe8261114b565b90506000610b0e82878787611178565b9050896001600160a01b0316816001600160a01b031614610b55576040516325c0072360e11b81526001600160a01b0380831660048301528b166024820152604401610631565b610b608a8a8a610c1d565b50505050505050505050565b60006001600160a01b0383163014610ba257604051635ad3edc960e11b81526001600160a01b0384166004820152602401610631565b60005b9392505050565b6040805180820190915260008082526020820152610ba583836111f9565b610bd2610f24565b6001600160a01b038116610bfc57604051631e4fbdf760e01b815260006004820152602401610631565b61069581611051565b6000610ba58284612259565b6000610ba58284612278565b610c2a838383600161122f565b505050565b6001600160a01b038381166000908152600160209081526040808320938616835292905220546000198114610ca75781811015610c9857604051637dc7a0d960e11b81526001600160a01b03841660048201526024810182905260448101839052606401610631565b610ca78484848403600061122f565b50505050565b6001600160a01b038316610cd757604051634b637e8f60e11b815260006004820152602401610631565b6001600160a01b038216610d015760405163ec442f0560e01b815260006004820152602401610631565b610c2a838383611304565b6000306001600160a01b037f000000000000000000000000000000000000000000000000000000000000000016148015610d6557507f000000000000000000000000000000000000000000000000000000000000000046145b15610d8f57507f000000000000000000000000000000000000000000000000000000000000000090565b6105f4604080517f8b73c3c69bb8fe3d512ecc4cf759cc79239f7b179b0ffacaa9a75d522b39400f60208201527f0000000000000000000000000000000000000000000000000000000000000000918101919091527f000000000000000000000000000000000000000000000000000000000000000060608201524660808201523060a082015260009060c00160405160208183030381529060405280519060200120905090565b600065ffffffffffff821115610e6a576040516306dfcc6560e41b81526030600482015260248101839052604401610631565b5090565b815460009081816005811115610ecd576000610e898461130f565b610e939085612246565b60008881526020902090915081015465ffffffffffff9081169087161015610ebd57809150610ecb565b610ec8816001612233565b92505b505b6000610edb878785856113f7565b90508015610f1657610f0087610ef2600184612246565b600091825260209091200190565b54600160301b90046001600160d01b0316610f19565b60005b979650505050505050565b6005546001600160a01b031633146108605760405163118cdaa760e01b8152336004820152602401610631565b6001600160a01b038216610f7b5760405163ec442f0560e01b815260006004820152602401610631565b61068760008383611304565b6001600160a01b038216610fb157604051634b637e8f60e11b815260006004820152602401610631565b61068782600083611304565b6001600160a01b0382811660008181526009602052604080822080548686166001600160a01b0319821681179092559151919094169392849290917f3134e8a2e6d97e929a7e54011ea5485d7d196dd5f0ba4d4ef95803e8e3fc257f9190a4610c2a818361102a86611459565b611477565b6001600160a01b0381166000908152600a60205260408120546105c0906115e3565b600580546001600160a01b038381166001600160a01b0319831681179093556040519116919082907f8be0079c531659141344cd1fd0a4f28419497f9722a3daafe3b4186f6b6457e090600090a35050565b6001600160a01b0381166000908152600860205260408120546105c0565b60606105f47f00000000000000000000000000000000000000000000000000000000000000006006611614565b60606105f47f00000000000000000000000000000000000000000000000000000000000000006007611614565b80546000908015610ba25761113583610ef2600184612246565b54600160301b90046001600160d01b0316610ba5565b60006105c0611158610d0c565b8360405161190160f01b8152600281019290925260228201526042902090565b60008060008061118a888888886116bf565b92509250925061119a828261178e565b50909695505050505050565b6001600160a01b0382166000908152600860205260409020805460018101909155818114610c2a576040516301d4b62360e61b81526001600160a01b038416600482015260248101829052604401610631565b60408051808201909152600080825260208201526001600160a01b0383166000908152600a60205260409020610ba59083611847565b6001600160a01b0384166112595760405163e602df0560e01b815260006004820152602401610631565b6001600160a01b03831661128357604051634a1406b160e11b815260006004820152602401610631565b6001600160a01b0380851660009081526001602090815260408083209387168352929052208290558015610ca757826001600160a01b0316846001600160a01b03167f8c5be1e5ebec7d5bd14f71427d1e84f3dd0314c0f7b2291e5b200ac8c7c3b925846040516112f691815260200190565b60405180910390a350505050565b610c2a8383836118b7565b60008160000361132157506000919050565b6000600161132e8461191e565b901c6001901b9050600181848161134757611347612297565b048201901c9050600181848161135f5761135f612297565b048201901c9050600181848161137757611377612297565b048201901c9050600181848161138f5761138f612297565b048201901c905060018184816113a7576113a7612297565b048201901c905060018184816113bf576113bf612297565b048201901c905060018184816113d7576113d7612297565b048201901c9050610ba5818285816113f1576113f1612297565b046119b2565b60005b8183101561145157600061140e84846119c8565b60008781526020902090915065ffffffffffff86169082015465ffffffffffff16111561143d5780925061144b565b611448816001612233565b93505b506113fa565b509392505050565b6001600160a01b0381166000908152602081905260408120546105c0565b816001600160a01b0316836001600160a01b0316141580156114995750600081115b15610c2a576001600160a01b03831615611541576001600160a01b0383166000908152600a6020526040812081906114dc90610c116114d7866119e3565b611a17565b6001600160d01b031691506001600160d01b03169150846001600160a01b03167fdec2bacdd2f05b59de34da9b523dff8be42e5e38e818c82fdb0bae774387a7248383604051611536929190918252602082015260400190565b60405180910390a250505b6001600160a01b03821615610c2a576001600160a01b0382166000908152600a60205260408120819061157a90610c056114d7866119e3565b6001600160d01b031691506001600160d01b03169150836001600160a01b03167fdec2bacdd2f05b59de34da9b523dff8be42e5e38e818c82fdb0bae774387a72483836040516115d4929190918252602082015260400190565b60405180910390a25050505050565b600063ffffffff821115610e6a576040516306dfcc6560e41b81526020600482015260248101839052604401610631565b606060ff831461162e5761162783611a49565b90506105c0565b81805461163a90612171565b80601f016020809104026020016040519081016040528092919081815260200182805461166690612171565b80156116b35780601f10611688576101008083540402835291602001916116b3565b820191906000526020600020905b81548152906001019060200180831161169657829003601f168201915b505050505090506105c0565b600080807f7fffffffffffffffffffffffffffffff5d576e7357a4501ddfe92f46681b20a08411156116fa5750600091506003905082611784565b604080516000808252602082018084528a905260ff891692820192909252606081018790526080810186905260019060a0016020604051602081039080840390855afa15801561174e573d6000803e3d6000fd5b5050604051601f1901519150506001600160a01b03811661177a57506000925060019150829050611784565b9250600091508190505b9450945094915050565b60008260038111156117a2576117a26122ad565b036117ab575050565b60018260038111156117bf576117bf6122ad565b036117dd5760405163f645eedf60e01b815260040160405180910390fd5b60028260038111156117f1576117f16122ad565b036118125760405163fce698f760e01b815260048101829052602401610631565b6003826003811115611826576118266122ad565b03610687576040516335e2f38360e21b815260048101829052602401610631565b6040805180820190915260008082526020820152826000018263ffffffff1681548110611876576118766122c3565b60009182526020918290206040805180820190915291015465ffffffffffff81168252600160301b90046001600160d01b0316918101919091529392505050565b6118c2838383611a88565b6001600160a01b0383166119135760006118db60025490565b90506001600160d01b038082111561191057604051630e58ae9360e11b81526004810183905260248101829052604401610631565b50505b610c2a838383611bb2565b600080608083901c1561193357608092831c92015b604083901c1561194557604092831c92015b602083901c1561195757602092831c92015b601083901c1561196957601092831c92015b600883901c1561197b57600892831c92015b600483901c1561198d57600492831c92015b600283901c1561199f57600292831c92015b600183901c156105c05760010192915050565b60008183106119c15781610ba5565b5090919050565b60006119d760028484186122d9565b610ba590848416612233565b60006001600160d01b03821115610e6a576040516306dfcc6560e41b815260d0600482015260248101839052604401610631565b600080611a3c42611a34611a2a8861111b565b868863ffffffff16565b879190611c28565b915091505b935093915050565b60606000611a5683611c36565b604080516020808252818301909252919250600091906020820181803683375050509182525060208101929092525090565b6001600160a01b038316611ab3578060026000828254611aa89190612233565b90915550611b259050565b6001600160a01b03831660009081526020819052604090205481811015611b065760405163391434e360e21b81526001600160a01b03851660048201526024810182905260448101839052606401610631565b6001600160a01b03841660009081526020819052604090209082900390555b6001600160a01b038216611b4157600280548290039055611b60565b6001600160a01b03821660009081526020819052604090208054820190555b816001600160a01b0316836001600160a01b03167fddf252ad1be2c89b69c2b068fc378daa952ba7f163c4a11628f55a4df523b3ef83604051611ba591815260200190565b60405180910390a3505050565b6001600160a01b038316611bd457611bd1600b610c056114d7846119e3565b50505b6001600160a01b038216611bf657611bf3600b610c116114d7846119e3565b50505b6001600160a01b03838116600090815260096020526040808220548584168352912054610c2a92918216911683611477565b600080611a3c858585611c5e565b600060ff8216601f8111156105c057604051632cd44ac360e21b815260040160405180910390fd5b825460009081908015611d7d576000611c7c87610ef2600185612246565b60408051808201909152905465ffffffffffff808216808452600160301b9092046001600160d01b031660208401529192509087161015611cd057604051632520601d60e01b815260040160405180910390fd5b805165ffffffffffff808816911603611d1c5784611cf388610ef2600186612246565b80546001600160d01b0392909216600160301b0265ffffffffffff909216919091179055611d6d565b6040805180820190915265ffffffffffff80881682526001600160d01b0380881660208085019182528b54600181018d5560008d81529190912094519151909216600160301b029216919091179101555b602001519250839150611a419050565b50506040805180820190915265ffffffffffff80851682526001600160d01b0380851660208085019182528854600181018a5560008a815291822095519251909316600160301b029190931617920191909155905081611a41565b6000815180845260005b81811015611dfe57602081850181015186830182015201611de2565b506000602082860101526020601f19601f83011685010191505092915050565b602081526000610ba56020830184611dd8565b6001600160a01b038116811461069557600080fd5b60008060408385031215611e5957600080fd5b8235611e6481611e31565b946020939093013593505050565b600080600060608486031215611e8757600080fd5b8335611e9281611e31565b92506020840135611ea281611e31565b929592945050506040919091013590565b600060208284031215611ec557600080fd5b5035919050565b600060208284031215611ede57600080fd5b8135610ba581611e31565b600080600080600060808688031215611f0157600080fd5b8535611f0c81611e31565b94506020860135611f1c81611e31565b935060408601359250606086013567ffffffffffffffff811115611f3f57600080fd5b8601601f81018813611f5057600080fd5b803567ffffffffffffffff811115611f6757600080fd5b886020828401011115611f7957600080fd5b959894975092955050506020019190565b60ff60f81b8816815260e060208201526000611fa960e0830189611dd8565b8281036040840152611fbb8189611dd8565b606084018890526001600160a01b038716608085015260a0840186905283810360c08501528451808252602080870193509091019060005b81811015612011578351835260209384019390920191600101611ff3565b50909b9a5050505050505050505050565b803560ff8116811461203357600080fd5b919050565b60008060008060008060c0878903121561205157600080fd5b863561205c81611e31565b9550602087013594506040870135935061207860608801612022565b9598949750929560808101359460a0909101359350915050565b600080600080600080600060e0888a0312156120ad57600080fd5b87356120b881611e31565b965060208801356120c881611e31565b955060408801359450606088013593506120e460808901612022565b9699959850939692959460a0840135945060c09093013592915050565b6000806040838503121561211457600080fd5b823561211f81611e31565b9150602083013561212f81611e31565b809150509250929050565b6000806040838503121561214d57600080fd5b823561215881611e31565b9150602083013563ffffffff8116811461212f57600080fd5b600181811c9082168061218557607f821691505b6020821081036121a557634e487b7160e01b600052602260045260246000fd5b50919050565b6001600160a01b03878116825286166020820152604081018590526060810184905260a0608082018190528101829052818360c0830137600081830160c090810191909152601f909201601f1916010195945050505050565b60006020828403121561221657600080fd5b5051919050565b634e487b7160e01b600052601160045260246000fd5b808201808211156105c0576105c061221d565b818103818111156105c0576105c061221d565b6001600160d01b0381811683821601908111156105c0576105c061221d565b6001600160d01b0382811682821603908111156105c0576105c061221d565b634e487b7160e01b600052601260045260246000fd5b634e487b7160e01b600052602160045260246000fd5b634e487b7160e01b600052603260045260246000fd5b6000826122f657634e487b7160e01b600052601260045260246000fd5b50049056fea264697066735822122009faaef7c39a54c38d7589c858b2b1780dbe369c3963e370bc1cbeea5befcb4764736f6c634300081a0033dec2bacdd2f05b59de34da9b523dff8be42e5e38e818c82fdb0bae774387a724","linkReferences":{}},"methodIdentifiers":{"CLOCK_MODE()":"4bf5d7e9","DOMAIN_SEPARATOR()":"3644e515","allowance(address,address)":"dd62ed3e","approve(address,uint256)":"095ea7b3","balanceOf(address)":"70a08231","burn(uint256)":"42966c68","burnFrom(address,uint256)":"79cc6790","checkpoints(address,uint32)":"f1127ed8","clock()":"91ddadf4","decimals()":"313ce567","delegate(address)":"5c19a95c","delegateBySig(address,uint256,uint256,uint8,bytes32,bytes32)":"c3cda520","delegates(address)":"587cde1e","eip712Domain()":"84b0196e","flashFee(address,uint256)":"d9d98ce4","flashLoan(address,address,uint256,bytes)":"5cffe9de","getPastTotalSupply(uint256)":"8e539e8c","getPastVotes(address,uint256)":"3a46b1a8","getVotes(address)":"9ab24eb0","maxFlashLoan(address)":"613255ab","mint(address,uint256)":"40c10f19","name()":"06fdde03","nonces(address)":"7ecebe00","numCheckpoints(address)":"6fcfff45","owner()":"8da5cb5b","permit(address,address,uint256,uint256,uint8,bytes32,bytes32)":"d505accf","renounceOwnership()":"715018a6","symbol()":"95d89b41","totalSupply()":"18160ddd","transfer(address,uint256)":"a9059cbb","transferFrom(address,address,uint256)":"23b872dd","transferOwnership(address)":"f2fde38b"},"id":72}